:020000040800F2
:100000000028002021150008151200081B12000806
:1000100021120008271200082D120008000000001D
:100020000000000000000000000000003312000883
:100030003F120008000000004B1200085712000891
:100040006915000869150008691500086915000898
:100050006915000869150008691500086915000888
:100060006915000869150008691500086915000878
:100070006915000869150008691500086915000868
:100080006915000869150008691500086915000858
:100090006915000869150008691500086915000848
:1000A0006915000869150008691500086915000838
:1000B00065120008691500080000000069150008B5
:1000C0006915000800000000000000006915000824
:1000D0000000000069150008691500080000000014
:1000E000691500086915000869150008000000007E
:1000F0000000000000000000000000000000000000
:0C01000000000000000000005FF808F1A3
:10010C0010B5054C237833B9044B13B10448AFF345
:10011C0000800123237010BD40000020000000006F
:10012C00B82B000808B5034B1BB103490348AFF3C8
:10013C00008008BD0000000044000020B82B00081F
:10014C0080B483B000AF0346FB71FB79034AD35CE8
:10015C0018460C37BD4680BC704700BF5C000020C1
:10016C0080B483B000AF0023FB7106E0FB79074A33
:10017C000021D154FB790133FB71FB79002BF5D0B5
:10018C0000BF00BF0C37BD4680BC70475C00002030
:10019C0080B582B000AF0346FB71FB79114AD35C8A
:1001AC00002B02D0012B0BD018E0002000F084F8BB
:1001BC000346002B0FD0FB790A4A0121D1540AE0E7
:1001CC00002000F079F80346002B06D1FB79054A94
:1001DC000021D15401E000BF00E000BF00BF083790
:1001EC00BD4680BD5C00002090B583B000AF0023FD
:1001FC00FB714AE0FA79FB792849895C284AD15489
:10020C00FB79284A52F82320FB79274931F813301F
:10021C00FC791946104601F08FFC03461A461F4B19
:10022C001A55FB791D4AD25CFB791D49CB5C9A426D
:10023C0028D1FA79FB791949895C1C4AD154FB798C
:10024C001A4AD35C002B14D1FB79194A32F81330BB
:10025C00632B09D8FB79164A32F81320013291B27C
:10026C00134A22F813100DE0FB79124A0121D154E4
:10027C0008E0FB790E4A002122F81310FB790D4A95
:10028C000021D154FB790133FB71FB79002BB1D0E8
:10029C0000BF00BF0C37BD4690BD00BF64000020FE
:1002AC0068000020000000200400002060000020F6
:1002BC00700000206C00002080B483B000AF0346B7
:1002CC00FB71FB79002B01D0002307E0FB79064A78
:1002DC00D35C002B0CBF01230023DBB218460C3778
:1002EC00BD4680BC704700BF6000002080B483B066
:1002FC0000AF0023FB7117E0FB79104A0121D154A8
:10030C00FB790F4A0121D154FB790E4A0121D154BA
:10031C00FB790D4A0021D154FB790C4A002122F8BB
:10032C001310FB790133FB71FB79002BE4D000BF78
:10033C0000BF0C37BD4680BC704700BF600000207A
:10034C0064000020680000206C0000207000002079
:10035C0080B500AF234B1A78234B1A70234B002225
:10036C001A70234B1A78204B5A70204B01225A706A
:10037C004FF47A7001F03AF84FF47A7001F074F897
:10038C001C4B1B681C4A11880022184601F0EBFB21
:10039C001A4B1B681A4A11880122184601F0E3FB1C
:1003AC00184B1B68184A11880122184601F0DBFB18
:1003BC00104B5B68104A51880122184601F0D3FBA0
:1003CC000E4B5B680E4A51880022184601F0CBFB9D
:1003DC000C4B5B680C4A51880122184601F0C3FB98
:1003EC0000BF80BD06000020740000200C0000201F
:1003FC00070000201000002028000020180000201A
:10040C002C000020200000203000002080B500AF20
:10041C00A64B1B78A64AA2FB0323DB08DAB2A54B3A
:10042C001A70A24B1A78A24BA3FB0213D9080B46E5
:10043C009B000B445B00D31ADAB29E4B5A709B4B59
:10044C005B789B4AA2FB0323DB08DAB2994B9A70C8
:10045C00964B5A78964BA3FB0213D9080B469B007C
:10046C000B445B00D31ADAB2924BDA70924B1B78C6
:10047C00022B6ED0022B00F3A480002B02D0012B98
:10048C0034D09EE08D4B1B688D4A11880022184693
:10049C0001F069FB00F0C6FF0346002B00F08C80D6
:1004AC00824B1B78013BDAB2804B1A707F4B1B7866
:1004BC00002B16D1804B01221A70804B1B68804A8E
:1004CC0011880122184601F04EFB7E4B1B687E4AB8
:1004DC0011880022184601F046FB7C4B1A78734BAE
:1004EC001A704FF47A7000F081FF65E0754B1B6851
:1004FC00754A11880022184601F035FB00F092FF76
:10050C000346002B5AD0694B1B78013BDAB2674B80
:10051C001A70664B1B78002B16D1674B02221A708F
:10052C00684B1B68684A11880122184601F01BFBB6
:10053C00674B1B68674A11880022184601F013FBB1
:10054C00654B1A78594B1A704FF47A7000F04EFFC5
:10055C0034E05F4B1B685F4A11880022184601F09B
:10056C0002FB00F05FFF0346002B29D04F4B1B789A
:10057C00013BDAB24D4B1A704C4B1B78002B16D149
:10058C004D4B00221A70524B1B68524A11880122A3
:10059C00184601F0E8FA494B1B68494A11880022B9
:1005AC00184601F0E0FA4D4B1A78404B1A704FF494
:1005BC007A7000F01BFF03E000BF02E000BF00E018
:1005CC0000BF3D4B5B78022B00F08A80022B00F3BE
:1005DC00BF80002B02D0012B34D0B9E0374B5B68C5
:1005EC00374A51880022184601F0BDFA00F058FF36
:1005FC000346002B00F0A7802C4B5B78013BDAB252
:10060C002A4B5A70294B5B78002B16D12A4B0122AE
:10061C005A702A4B5B682A4A51880122184601F00D
:10062C00A2FA284B5B68284A51880022184601F030
:10063C009AFA264B1A781D4B5A704FF47A7000F0C8
:10064C0013FF80E01F4B5B681F4A5188002218463D
:10065C0001F089FA00F024FF0346002B75D0134BF0
:10066C005B78013BDAB2114B5A70104B5B78002B64
:10067C0016D1114B02225A70124B5B68124A5188E8
:10068C000122184601F06FFA114B5B68114A518830
:10069C000022184601F067FA0F4B1A78034B5A7078
:1006AC004FF47A7000F0E0FE4FE000BF74000020C1
:1006BC00CDCCCCCC780000200C0000201000002009
:1006CC0028000020180000202C000020070000202B
:1006DC002000002030000020080000200600002030
:1006EC001C4B5B681C4A51880022184601F03BFAEF
:1006FC0000F0D6FE0346002B29D0184B5B78013B4B
:10070C00DAB2164B5A70154B5B78002B16D1144B82
:10071C0000225A700F4B5B680F4A51880122184611
:10072C0001F021FA0F4B1B680F4A51880022184622
:10073C0001F019FA0D4B1A78084B5A704FF47A7075
:10074C0000F092FE03E000BF02E000BF00E000BF3B
:10075C0000BF80BD2000002030000020740000206D
:10076C000C000020100000202800002006000020B3
:10077C0080B582B000AF0346FB71584B00221A7053
:10078C00FB79022B6DD0022B00F3A380002B02D03F
:10079C00012B33D09DE0514B02225A70504B1B78E9
:1007AC00504AA2FB0323DB08DAB24C4B9A704C4B39
:1007BC001A784C4BA3FB0213D9080B469B000B4435
:1007CC005B00D31ADAB2454BDA7000F071FD0346C8
:1007DC00002B79D0444B1B68444A128811461846AA
:1007EC0001F0D9F9404B5B68404A528811461846D3
:1007FC0001F0D1F9FA2000F03FFD65E0374B032200
:10080C005A703B4B1B78374AA2FB0323DB08DAB246
:10081C00324B9A70364B1A78324BA3FB0213D90821
:10082C000B469B000B445B00D31ADAB22B4BDA70ED
:10083C0000F03EFD0346002B48D02E4B1B682E4A81
:10084C0012881146184601F0A6F92A4B5B682A4A11
:10085C0052881146184601F09EF9FA2000F00CFD62
:10086C0034E01E4B04225A70244B1B781D4AA2FB09
:10087C000323DB08DAB2194B9A70204B1A78194B08
:10088C00A3FB0213D9080B469B000B445B00D31A45
:10089C00DAB2124BDA7000F00BFD0346002B17D0C6
:1008AC00174B1B68174A12881146184601F073F94A
:1008BC00134B5B68134A52881146184601F06BF9CA
:1008CC00FA2000F0D9FC03E000BF02E000BF00E01A
:1008DC0000BF00BF0837BD4680BD00BF78000020B8
:1008EC0006000020CDCCCCCC10000020280000202D
:1008FC0007000020180000202C0000200800002019
:10090C00200000203000002080B500AF414B1B7848
:10091C001A46414B9B5C184600F0C6F83D4B1B78C1
:10092C00032B6BD801A252F823F000BF4909000831
:10093C0079090008A9090008D909000800F034FD5C
:10094C000346002B5CD001224FF48071334801F038
:10095C000AF900224FF40071304801F004F92D4BD4
:10096C0001221A70FA2000F003FD49E000F01CFD92
:10097C000346002B46D001224FF40071274801F0AA
:10098C00F2F800224FF48061244801F0ECF8214B7E
:10099C0002221A70FA2000F0EBFC33E000F004FDA8
:1009AC000346002B30D001224FF480611B4801F02C
:1009BC00DAF800224FF40061184801F0D4F8154B16
:1009CC0003221A70FA2000F0D3FC1DE000F0ECFCBE
:1009DC000346002B1AD001224FF400610F4801F09E
:1009EC00C2F800224FF480710C4801F0BCF8094B9E
:1009FC0000221A70FA2000F0BBFC07E000BF06E0F2
:100A0C0000BF04E000BF02E000BF00E000BF00BF79
:100A1C0080BD00BF7C000020780000200008014051
:100A2C0080B500AF1A4B1B681A4A11880122184670
:100A3C0001F099F8184B1B68184A118801221846C6
:100A4C0001F091F8164B1B68164A118801221846C2
:100A5C0001F089F80E4B5B680E4A5188012218464A
:100A6C0001F081F80C4B5B680C4A51880122184646
:100A7C0001F079F80A4B5B680A4A51880122184642
:100A8C0001F071F8FA2000F0F7FB00BF80BD00BF49
:100A9C002000002030000020180000202C00002036
:100AAC00100000202800002080B582B000AF034663
:100ABC00FB71FB79092B00F27F8101A252F823F024
:100ACC00F50A00083D0B0008850B0008CD0B00084B
:100ADC00150C00085D0C0008A50C0008ED0C0008B6
:100AEC00350D00087D0D000800220221B44801F0EC
:100AFC003AF800220421B24801F035F8002208210E
:100B0C00AF4801F030F800221021AD4801F02BF86D
:100B1C0000222021AA4801F026F800224021A848F2
:100B2C0001F021F801228021A54801F01CF843E1D5
:100B3C0001220221A24801F016F800220421A0484B
:100B4C0001F011F8002208219D4801F00CF8012257
:100B5C0010219B4801F007F801222021984801F050
:100B6C0002F801224021964800F0FDFF012280216D
:100B7C00934800F0F8FF1FE100220221904800F09A
:100B8C00F2FF002204218E4800F0EDFF0122082123
:100B9C008B4800F0E8FF00221021894800F0E3FFA9
:100BAC0000222021864800F0DEFF012240218448EB
:100BBC0000F0D9FF00228021814800F0D4FFFBE037
:100BCC00002202217E4800F0CEFF002204217C4846
:100BDC0000F0C9FF00220821794800F0C4FF002270
:100BEC001021774800F0BFFF01222021744800F04B
:100BFC00BAFF01224021724800F0B5FF002280218B
:100C0C006F4800F0B0FFD7E0012202216C4800F0E1
:100C1C00AAFF002204216A4800F0A5FF0022082147
:100C2C00674800F0A0FF01221021654800F09BFFEF
:100C3C0001222021624800F096FF002240216048EA
:100C4C0000F091FF002280215D4800F08CFFB3E0A2
:100C5C00002202215A4800F086FF01220421584844
:100C6C0000F081FF00220821554800F07CFF002293
:100C7C001021534800F077FF01222021504800F04A
:100C8C0072FF002240214E4800F06DFF00228021AF
:100C9C004B4800F068FF8FE000220221484800F02A
:100CAC0062FF01220421464800F05DFF002208216A
:100CBC00434800F058FF00221021414800F053FF38
:100CCC00002220213E4800F04EFF002240213C48EB
:100CDC0000F049FF00228021394800F044FF6BE00E
:100CEC0000220221364800F03EFF00220421344845
:100CFC0000F039FF00220821314800F034FF0122B6
:100D0C0010212F4800F02FFF012220212C4800F049
:100D1C002AFF012240212A4800F025FF01228021D0
:100D2C00274800F020FF47E000220221244800F071
:100D3C001AFF00220421224800F015FF002208218E
:100D4C001F4800F010FF002210211D4800F00BFF7F
:100D5C00002220211A4800F006FF002240211848EA
:100D6C0000F001FF00228021154800F0FCFE23E07A
:100D7C0000220221124800F0F6FE00220421104845
:100D8C0000F0F1FE002208210D4800F0ECFE0022DC
:100D9C0010210B4800F0E7FE01222021084800F04A
:100DAC00E2FE00224021064800F0DDFE00228021F8
:100DBC00034800F0D8FE00BF00BF0837BD4680BD19
:100DCC000008014080B582B000AF00F0C9FB00F014
:100DDC009DF800F023F900F0D5F84B4801F022FB08
:100DEC0000F07EF9FFF7BCF9FFF780FA00F0B6F9D6
:100DFC00FFF7AEFA0023FB7100F098FA0346002BC4
:100E0C0004D0FFF7F1F90A2000F074FA0020FFF784
:100E1C00BFF90020FFF794F90346BB71FB79072B50
:100E2C006FD801A252F823F0550E0008650E000889
:100E3C00790E00088B0E0008A10E0008B30E0008F6
:100E4C00C90E0008DB0E0008FFF7E0FABB79012B96
:100E5C0048D10123FB7145E0FFF7D8FABB79002B91
:100E6C0042D10223FB71FFF7DBFD3DE00020FFF7D1
:100E7C007FFCBB79012B39D10323FB7136E00020B9
:100E8C00FFF776FCBB79002B32D10423FB71FFF703
:100E9C00C7FD2DE00120FFF76BFCBB79012B29D19D
:100EAC000523FB7126E00120FFF762FCBB79002BC8
:100EBC0022D10623FB71FFF7B3FD1DE00220FFF7E3
:100ECC0057FCBB79012B19D10723FB7116E00220CB
:100EDC00FFF74EFCBB79002B12D10023FB71FFF7FF
:100EEC0037FA0DE000BF0CE000BF0AE000BF08E0DD
:100EFC0000BF06E000BF04E000BF02E000BF00E05E
:100F0C0000BFFFF701FD77E78000002080B590B0AF
:100F1C0000AF07F1180328220021184601F03EFE0D
:100F2C003B1D00221A605A609A60DA601A61022333
:100F3C00BB610123BB621023FB6200237B6307F1BF
:100F4C001803184600F040FE0346002B01D000F0B9
:100F5C000FF90F237B600023BB600023FB60002391
:100F6C003B6100237B613B1D0021184601F0AEF86C
:100F7C000346002B01D000F0FBF800BF4037BD4604
:100F8C0080BD000080B586B000AF07F108030022D9
:100F9C001A605A609A60DA603B4600221A605A6006
:100FAC001D4B4FF080421A601B4B41F63F725A604A
:100FBC00194B00229A60184B0922DA60164B00225A
:100FCC001A61154B00229A61134801F0DBF90346B4
:100FDC00002B01D000F0CCF84FF48053BB6007F12C
:100FEC00080319460C4801F071FB0346002B01D095
:100FFC0000F0BEF800233B6000237B603B461946A3
:10100C00054801F03DFD0346002B01D000F0B0F87F
:10101C0000BF1837BD4680BD8000002080B586B06B
:10102C0000AF07F1080300221A605A609A60DA6078
:10103C00284B9B69274A43F004039361254B9B691A
:10104C0003F004037B607B68224B9B69214A43F0CD
:10105C00080393611F4B9B6903F008033B603B68DB
:10106C00002240F6FE711C4800F07DFD00223F215D
:10107C001A4800F078FD40F6FE73BB600123FB605C
:10108C0000233B6102237B6107F1080319461248D8
:10109C0000F0D6FB3F23BB600123FB6000233B61C8
:1010AC0002237B6107F1080319460C4800F0C8FBCA
:1010BC004FF4E043BB600023FB6001233B6107F16D
:1010CC0008031946044800F0BBFB00BF1837BD46A7
:1010DC0080BD00BF0010024000080140000C014020
:1010EC0080B500AF00224FF480711A4800F03BFD30
:1010FC0001224FF40071174800F035FD01224FF426
:10110C008061144800F02FFD01224FF4006111485A
:10111C0000F029FD012201210F4800F024FD0122DD
:10112C0002210D4800F01FFD012204210A4800F0A5
:10113C001AFD01220821084800F015FD012210219A
:10114C00054800F010FD01222021034800F00BFDA2
:10115C0000BF80BD00080140000C014080B500AF0D
:10116C000A2000F0C7F8FA2000F002F900BF80BD99
:10117C0080B400AF72B600BFFEE7000080B483B04D
:10118C0000AF0E4B9B690D4A43F0010393610B4B6F
:10119C009B6903F001037B607B68084BDB69074AA2
:1011AC0043F08053D361054BDB6903F080533B6004
:1011BC003B6800BF0C37BD4680BC70470010024036
:1011CC0080B584B000AF78607B681B68B3F1804F4A
:1011DC0013D10C4BDB690B4A43F00103D361094B70
:1011EC00DB6903F00103FB60FB68002200211C207B
:1011FC0000F0EFFA1C2000F008FB00BF1037BD46D2
:10120C0080BD00BF0010024080B400AFFEE780B488
:10121C0000AFFEE780B400AFFEE780B400AFFEE79E
:10122C0080B400AFFEE780B400AF00BFBD4680BC09
:10123C00704780B400AF00BFBD4680BC704780B41F
:10124C0000AF00BFBD4680BC704780B500AF00F05A
:10125C00CDF900BF80BD000080B500AF024801F0A1
:10126C002DF900BF80BD00BF8000002080B400AF0E
:10127C0000BFBD4680BC704780B483B000AF03464E
:10128C00FB80FB88074AA2FB0323DB089AB2064BC0
:10129C001A80064B00221A7000BF0C37BD4680BC6A
:1012AC00704700BFCDCCCCCCCC000020CE000020B1
:1012BC0080B400AF024B1B781846BD4680BC70470B
:1012CC00CE00002080B400AF084B1B88013B9AB2C3
:1012DC00064B1A80054B1B88002B02D1044B0122B4
:1012EC001A7000BFBD4680BC704700BFCC00002008
:1012FC00CE00002080B483B000AF0346FB80FB8897
:10130C00074AA2FB0323DB089AB2064B1A80064B52
:10131C0000221A7000BF0C37BD4680BC704700BF5E
:10132C00CDCCCCCCC8000020CA00002080B400AFCB
:10133C00024B1B781846BD4680BC7047CA00002083
:10134C0080B400AF084B1B88013B9AB2064B1A8045
:10135C00054B1B88002B02D1044B01221A7000BFD5
:10136C00BD4680BC704700BFC8000020CA000020EA
:10137C0080B483B000AF0346FB80FB88074AA2FB16
:10138C000323DB089AB2064B1A80064B00221A7014
:10139C0000BF0C37BD4680BC704700BFCDCCCCCC59
:1013AC00D0000020D200002080B400AF024B1B788C
:1013BC001846BD4680BC7047D200002080B400AFF8
:1013CC00084B1B88013B9AB2064B1A80054B1B88B5
:1013DC00002B02D1044B01221A7000BFBD4680BC09
:1013EC00704700BFD0000020D200002080B483B032
:1013FC0000AF0346FB80FB88074AA2FB0323DB08F4
:10140C009AB2064B1A80064B00221A7000BF0C379A
:10141C00BD4680BC704700BFCDCCCCCCD4000020E6
:10142C00D600002080B400AF024B1B781846BD4696
:10143C0080BC7047D600002080B400AF084B1B88DE
:10144C00013B9AB2064B1A80054B1B88002B02D12C
:10145C00044B01221A7000BFBD4680BC704700BF10
:10146C00D4000020D600002080B483B000AF034627
:10147C00FB80FB88074AA2FB0323DB089AB2064BCE
:10148C001A80064B00221A7000BF0C37BD4680BC78
:10149C00704700BFCDCCCCCCD8000020DA000020A7
:1014AC0080B400AF024B1B781846BD4680BC704719
:1014BC00DA00002080B400AF084B1B88013B9AB2C5
:1014CC00064B1A80054B1B88002B02D1044B0122C2
:1014DC001A7000BFBD4680BC704700BFD80000200A
:1014EC00DA00002080B582B000AF78607B681B68A2
:1014FC00B3F1804F09D1FFF761FFFFF721FFFFF731
:10150C009BFFFFF7D7FFFFF7DDFE00BF0837BD4697
:10151C0080BD0000FFF7AAFE0B480C490C4A0023C3
:10152C0002E0D458C4500433C4188C42F9D3094A8D
:10153C00094C002301E013600432A242FBD301F0FA
:10154C0009FBFFF73FFC7047000000204000002023
:10155C00FC2B000840000020E0000020FEE700000B
:10156C0080B500AF084B1B68074A43F010031360AB
:10157C00032000F023F90F2000F008F8FFF7FEFD20
:10158C000023184680BD00BF0020024080B582B009
:10159C0000AF7860124B1A68124B1B7819464FF447
:1015AC007A73B3FBF1F3B2FBF3F3184600F03BF99B
:1015BC000346002B01D001230EE07B680F2B0AD8C9
:1015CC00002279684FF0FF3000F003F9064A7B687F
:1015DC001360002300E0012318460837BD4680BD88
:1015EC00340000203C0000203800002080B400AF04
:1015FC00054B1B781A46054B1B681344034A1360B2
:10160C0000BFBD4680BC70473C000020DC000020C1
:10161C0080B400AF024B1B681846BD4680BC7047B7
:10162C00DC00002080B485B000AF78607B6803F0EC
:10163C000703FB600C4BDB68BB60BA684FF6FF031B
:10164C001340BB60FB681A02BB68134343F0BF63D3
:10165C0043F40033BB60044ABB68D36000BF14374B
:10166C00BD4680BC704700BF00ED00E080B400AF09
:10167C00044BDB681B0A03F007031846BD4680BC0D
:10168C00704700BF00ED00E080B483B000AF0346AC
:10169C00FB7197F90730002B0BDBFB7903F01F0272
:1016AC00064997F907305B09012000FA02F241F86C
:1016BC00232000BF0C37BD4680BC704700E100E022
:1016CC0080B483B000AF03463960FB7197F90730E3
:1016DC00002B0ADB3B68DAB20C4997F90730120190
:1016EC00D2B20B4483F800230AE03B68DAB2084913
:1016FC00FB7903F00F03043B1201D2B20B441A76B0
:10170C0000BF0C37BD4680BC704700BF00E100E055
:10171C0000ED00E080B489B000AFF860B9607A6089
:10172C00FB6803F00703FB61FB69C3F10703042BA0
:10173C0028BF0423BB61FB690433062B02D9FB6968
:10174C00033B00E000237B614FF0FF32BB6902FAE0
:10175C0003F3DA43BB681A407B699A404FF0FF31C0
:10176C007B6901FA03F3D9437B680B40134318469A
:10177C002437BD4680BC704780B582B000AF78601E
:10178C007B68013BB3F1807F01D301230FE00A4A50
:10179C007B68013B53600F214FF0FF30FFF790FF48
:1017AC00054B00229A60044B07221A60002318464E
:1017BC000837BD4680BD00BF10E000E080B582B0A8
:1017CC0000AF78607868FFF72DFF00BF0837BD4683
:1017DC0080BD80B586B000AF0346B9607A60FB73FC
:1017EC0000237B61FFF742FF78617A68B9687869FA
:1017FC00FFF790FF024697F90F3011461846FFF796
:10180C005FFF00BF1837BD4680BD80B582B000AF0A
:10181C000346FB7197F907301846FFF735FF00BFF9
:10182C000837BD4680BD80B582B000AF786078685F
:10183C00FFF7A2FF034618460837BD4680BD0000DF
:10184C0080B48BB000AF7860396000237B620023DA
:10185C003B6261E101227B6A02FA03F3FB613B68A4
:10186C001B68FA691340BB61BA69FB699A4240F084
:10187C0050813B685B68974A93425ED0954A93428D
:10188C0075D8954A934258D0934A93426FD8934A4D
:10189C00934252D0914A934269D8914A93424CD088
:1018AC008F4A934263D88F4A934246D08D4A9342D3
:1018BC005DD8122B2AD8122B59D801A252F823F03A
:1018CC004719000821190008331900087519000878
:1018DC007B1900087B1900087B1900087B1900088C
:1018EC007B1900087B1900087B1900087B1900087C
:1018FC007B1900087B1900087B1900087B1900086C
:10190C007B190008291900083D190008764A9342F2
:10191C0013D02CE03B68DB683B6229E03B68DB685A
:10192C0004333B6224E03B68DB6808333B621FE016
:10193C003B68DB680C333B621AE03B689B68002B0E
:10194C0002D104233B6213E03B689B68012B05D159
:10195C0008233B627B68FA691A6109E008233B6241
:10196C007B68FA695A6103E000233B6200E000BF28
:10197C00BB69FF2B01D87B6801E07B6804337B617A
:10198C00BB69FF2B02D87B6A9B0002E07B6A083B99
:10199C009B003B617B691A680F213B6901FA03F3D9
:1019AC00DB431A40396A3B6901FA03F31A437B693A
:1019BC001A603B685B6803F08053002B00F0A98031
:1019CC004A4B9B69494A43F001039361474B9B691E
:1019DC0003F00103BB60BB68454A7B6A9B0802337A
:1019EC0052F82330FB607B6A03F003039B000F2249
:1019FC0002FA03F3DB43FA681340FB607B683D4A51
:101A0C0093420DD07B683C4A934207D07B683B4A9B
:101A1C00934201D1022304E0032302E0012300E0FE
:101A2C0000237A6A02F0030292009340FA6813438F
:101A3C00FB602F497B6A9B080233FA6841F823202C
:101A4C003B685B6803F48013002B06D02C4B9A6820
:101A5C002B49BB6913438B6006E0294B9A68BB6921
:101A6C00DB43274913408B603B685B6803F400132E
:101A7C00002B06D0224BDA682149BB691343CB609B
:101A8C0006E01F4BDA68BB69DB431D491340CB6092
:101A9C003B685B6803F40033002B06D0184B5A6884
:101AAC001749BB6913434B6006E0154B5A68BB6979
:101ABC00DB43134913404B603B685B6803F4803392
:101ACC00002B1FD00E4B1A680D49BB6913430B60DA
:101ADC001FE000BF00003210000031100000221087
:101AEC000000211000001210000011100010024024
:101AFC000000014000080140000C014000100140B2
:101B0C00000401400B4B1A68BB69DB4309491340C5
:101B1C000B607B6A01337B623B681A687B6A22FA32
:101B2C0003F3002B7FF496AE00BF00BF2C37BD46ED
:101B3C0080BC70470004014080B485B000AF786071
:101B4C000B467B807B689A687B881340002B02D005
:101B5C000123FB7301E00023FB73FB7B1846143756
:101B6C00BD4680BC704780B483B000AF78600B4634
:101B7C007B8013467B707B78002B03D07A887B6844
:101B8C001A6103E07B881A047B681A6100BF0C376A
:101B9C00BD4680BC704780B485B000AF78600B4602
:101BAC007B807B68DB68FB607A88FB6813401A04D7
:101BBC00FB68D9437B880B401A437B681A6100BFD2
:101BCC001437BD4680BC704780B586B000AF7860D6
:101BDC007B68002B01D1012372E27B681B6803F048
:101BEC000103002B00F08780924B5B6803F00C0321
:101BFC00042B0CD08F4B5B6803F00C03082B12D119
:101C0C008C4B5B6803F48033B3F5803F0BD1894B6D
:101C1C001B6803F40033002B6CD07B685B68002BD3
:101C2C0068D101234CE27B685B68B3F5803F06D139
:101C3C00804B1B687F4A43F4803313602EE07B6833
:101C4C005B68002B0CD17B4B1B687A4A23F48033E6
:101C5C001360784B1B68774A23F4802313601DE0D4
:101C6C007B685B68B3F5A02F0CD1724B1B68714A73
:101C7C0043F4802313606F4B1B686E4A43F480332C
:101C8C0013600BE06B4B1B686A4A23F480331360C0
:101C9C00684B1B68674A23F4802313607B685B687E
:101CAC00002B13D0FFF7B4FC386108E0FFF7B0FC51
:101CBC0002463B69D31A642B01D9032300E25D4B26
:101CCC001B6803F40033002BF0D014E0FFF7A0FCEA
:101CDC00386108E0FFF79CFC02463B69D31A642B81
:101CEC0001D90323ECE1534B1B6803F40033002BA5
:101CFC00F0D100E000BF7B681B6803F00203002BEF
:101D0C0063D04C4B5B6803F00C03002B0BD0494B9E
:101D1C005B6803F00C03082B1CD1464B5B6803F487
:101D2C008033002B16D1434B1B6803F00203002BAE
:101D3C0005D07B681B69012B01D00123C0E13D4B11
:101D4C001B6823F0F8027B685B69DB00394913439D
:101D5C000B603AE07B681B69002B20D0364B0122CC
:101D6C001A60FFF755FC386108E0FFF751FC02469A
:101D7C003B69D31A022B01D90323A1E12D4B1B681C
:101D8C0003F00203002BF0D02A4B1B6823F0F8025F
:101D9C007B685B69DB00274913430B6015E0264B1E
:101DAC0000221A60FFF734FC386108E0FFF730FCC2
:101DBC0002463B69D31A022B01D9032380E11D4B48
:101DCC001B6803F00203002BF0D17B681B6803F047
:101DDC000803002B3AD07B689B69002B19D0174B5A
:101DEC0001221A60FFF714FC386108E0FFF710FCC1
:101DFC0002463B69D31A022B01D9032360E10D4B38
:101E0C005B6A03F00203002BF0D0012000F09CFA77
:101E1C001CE00A4B00221A60FFF7FAFB38610FE056
:101E2C00FFF7F6FB02463B69D31A022B08D90323B2
:101E3C0046E100BF001002400000424280044242D2
:101E4C00924B5B6A03F00203002BE9D17B681B68A1
:101E5C0003F00403002B00F0A6800023FB758B4BD2
:101E6C00DB6903F08053002B0DD1884BDB69874A6B
:101E7C0043F08053D361854BDB6903F08053BB6027
:101E8C00BB680123FB75824B1B6803F48073002B2A
:101E9C0018D17F4B1B687E4A43F480731360FFF7A5
:101EAC00B7FB386108E0FFF7B3FB02463B69D31A76
:101EBC00642B01D9032303E1754B1B6803F4807376
:101ECC00002BF0D07B68DB68012B06D16F4B1B6AB3
:101EDC006E4A43F0010313622DE07B68DB68002B34
:101EEC000CD16A4B1B6A694A23F001031362674BDE
:101EFC001B6A664A23F0040313621CE07B68DB68F0
:101F0C00052B0CD1614B1B6A604A43F0040313622E
:101F1C005E4B1B6A5D4A43F0010313620BE05B4BA3
:101F2C001B6A5A4A23F001031362584B1B6A574A27
:101F3C0023F0040313627B68DB68002B15D0FFF7DA
:101F4C0067FB38610AE0FFF763FB02463B69D31A73
:101F5C0041F28832934201D90323B1E04B4B1B6A07
:101F6C0003F00203002BEED014E0FFF751FB3861B5
:101F7C000AE0FFF74DFB02463B69D31A41F2883267
:101F8C00934201D903239BE0404B1B6A03F00203ED
:101F9C00002BEED1FB7D012B05D13C4BDB693B4A81
:101FAC0023F08053D3617B68DB69002B00F08780C2
:101FBC00364B5B6803F00C03082B61D07B68DB6944
:101FCC00022B46D1334B00221A60FFF721FB3861FC
:101FDC0008E0FFF71DFB02463B69D31A022B01D91F
:101FEC0003236DE0294B1B6803F00073002BF0D129
:101FFC007B681B6AB3F5803F08D1244B5B6823F4E4
:10200C0000327B689B68214913434B601F4B5B6814
:10201C0023F474127B68196A7B685B6A0B431B4957
:10202C0013434B601B4B01221A60FFF7F1FA386126
:10203C0008E0FFF7EDFA02463B69D31A022B01D9EF
:10204C0003233DE0114B1B6803F00073002BF0D011
:10205C0035E0104B00221A60FFF7DAFA386108E01D
:10206C00FFF7D6FA02463B69D31A022B01D9032398
:10207C0026E0064B1B6803F00073002BF0D11EE02A
:10208C007B68DB69012B07D1012319E000100240AA
:10209C0000700040600042420B4B5B68FB60FB68C9
:1020AC0003F480327B681B6A9A4206D1FB6803F406
:1020BC0070127B685B6A9A4201D0012300E0002316
:1020CC0018461837BD4680BD0010024080B584B05C
:1020DC0000AF786039607B68002B01D10123D0E020
:1020EC006A4B1B6803F007033A689A4210D9674B96
:1020FC001B6823F0070265493B6813430B60634B75
:10210C001B6803F007033A689A4201D00123B8E038
:10211C007B681B6803F00203002B20D07B681B68D4
:10212C0003F00403002B05D0594B5B68584A43F469
:10213C00E06353607B681B6803F00803002B05D039
:10214C00534B5B68524A43F460535360504B5B688B
:10215C0023F0F0027B689B684D4913434B607B680E
:10216C001B6803F00103002B40D07B685B68012BDC
:10217C0007D1474B1B6803F40033002B15D1012307
:10218C007FE07B685B68022B07D1414B1B6803F037
:10219C000073002B09D1012373E03D4B1B6803F046
:1021AC000203002B01D101236BE0394B5B6823F058
:1021BC0003027B685B68364913434B60FFF728FAD0
:1021CC00F8600AE0FFF724FA0246FB68D31A41F2E2
:1021DC008832934201D9032353E02D4B5B6803F003
:1021EC000C027B685B689B009A42EBD1274B1B6807
:1021FC0003F007033A689A4210D2244B1B6823F071
:10220C00070222493B6813430B60204B1B6803F009
:10221C0007033A689A4201D0012332E07B681B68BD
:10222C0003F00403002B08D0194B5B6823F4E06225
:10223C007B68DB68164913434B607B681B6803F0B3
:10224C000803002B09D0124B5B6823F460527B68A7
:10225C001B69DB000E4913434B6000F021F802466A
:10226C000B4B5B681B0903F00F030A49CB5C22FA8A
:10227C0003F3094A1360094B1B681846FFF786F9EC
:10228C00002318461037BD4680BD00BF0020024019
:10229C0000100240D02B0008340000203800002031
:1022AC0080B487B000AF0023FB600023BB60002329
:1022BC007B6100237B6000233B611E4B5B68FB60F2
:1022CC00FB6803F00C03042B02D0082B03D027E08F
:1022DC00194B3B6127E0FB689B0C03F00F03174A7B
:1022EC00D35C7B60FB6803F48033002B10D0114B64
:1022FC005B685B0C03F00103114AD35CBB607B6829
:10230C000D4A03FB02F2BB68B2FBF3F37B6104E002
:10231C007B680C4A02FB03F37B617B693B6102E047
:10232C00054B3B6100BF3B6918461C37BD4680BC62
:10233C00704700BF0010024000127A00E02B00082A
:10234C00F02B000800093D0080B485B000AF786028
:10235C000A4B1B680A4AA2FB03235B0A7A6802FB3E
:10236C0003F3FB6000BFFB685A1EFA60002BF9D127
:10237C0000BF00BF1437BD4680BC7047340000203E
:10238C00D34D621080B582B000AF78607B68002BB3
:10239C0001D1012341E07B6893F83D30DBB2002B87
:1023AC0006D17B68002283F83C207868FEF708FF92
:1023BC007B68022283F83D207B681A687B680433B3
:1023CC001946104600F06EFA7B68012283F846200D
:1023DC007B68012283F83E207B68012283F83F2032
:1023EC007B68012283F840207B68012283F841201E
:1023FC007B68012283F842207B68012283F843200A
:10240C007B68012283F844207B68012283F84520F5
:10241C007B68012283F83D20002318460837BD460F
:10242C0080BD000080B485B000AF78607B6893F805
:10243C003D30DBB2012B01D0012335E07B68022259
:10244C0083F83D207B681B68DA687B681B6842F068
:10245C000102DA607B681B68164A934209D07B68DC
:10246C001B68B3F1804F04D07B681B68124A9342FF
:10247C0011D17B681B689B6803F00703FB60FB684A
:10248C00062B10D07B681B681A687B681B6842F0AF
:10249C0001021A6007E07B681B681A687B681B687E
:1024AC0042F001021A60002318461437BD4680BC66
:1024BC00704700BF002C01400004004080B582B082
:1024CC0000AF78607B681B681B6903F00203022B6A
:1024DC0022D17B681B68DB6803F00203022B1BD143
:1024EC007B681B686FF002021A617B6801221A7705
:1024FC007B681B689B6903F00303002B03D078688F
:10250C0000F0B4F905E0786800F0A7F9786800F0FD
:10251C00B6F97B6800221A777B681B681B6903F08D
:10252C000403042B22D17B681B68DB6803F00403D3
:10253C00042B1BD17B681B686FF004021A617B684B
:10254C0002221A777B681B689B6903F44073002B8B
:10255C0003D0786800F08AF905E0786800F07DF91E
:10256C00786800F08CF97B6800221A777B681B680E
:10257C001B6903F00803082B22D17B681B68DB68FE
:10258C0003F00803082B1BD17B681B686FF0080253
:10259C001A617B6804221A777B681B68DB6903F07D
:1025AC000303002B03D0786800F060F905E078682D
:1025BC0000F053F9786800F062F97B6800221A7712
:1025CC007B681B681B6903F01003102B22D17B68FE
:1025DC001B68DB6803F01003102B1BD17B681B6896
:1025EC006FF010021A617B6808221A777B681B68EF
:1025FC00DB6903F44073002B03D0786800F036F9E4
:10260C0005E0786800F029F9786800F038F97B6803
:10261C0000221A777B681B681B6903F00103012BEE
:10262C000ED17B681B68DB6803F00103012B07D11B
:10263C007B681B686FF001021A617868FEF752FF25
:10264C007B681B681B6903F08003802B0ED17B68B1
:10265C001B68DB6803F08003802B07D17B681B6849
:10266C006FF080021A61786800F06BFA7B681B6867
:10267C001B6903F04003402B0ED17B681B68DB68A1
:10268C0003F04003402B07D17B681B686FF04002BE
:10269C001A61786800F0FCF87B681B681B6903F012
:1026AC002003202B0ED17B681B68DB6803F0200312
:1026BC00202B07D17B681B686FF020021A617868A9
:1026CC0000F036FA00BF0837BD4680BD80B584B037
:1026DC0000AF786039600023FB737B6893F83C3063
:1026EC00012B01D10223B4E07B68012283F83C204A
:1026FC007B68022283F83D207B681B689B68BB606B
:10270C00BB6823F07703BB60BB6823F47F43BB60DB
:10271C007B681B68BA689A603B681B68B3F5005FFE
:10272C003ED0B3F5005F00F28780B3F5805F00F018
:10273C008680B3F5805F7FD8702B1AD0702B7BD836
:10274C00602B50D0602B77D8502B3CD0502B73D8AB
:10275C00402B58D0402B6FD8302B64D0302B6BD8FB
:10276C00202B60D0202B67D8002B5CD0102B5AD09C
:10277C0062E07B6818683B6899683B685A683B68FC
:10278C00DB6800F05EF97B681B689B68BB60BB680C
:10279C0043F07703BB607B681B68BA689A604FE0B4
:1027AC007B6818683B6899683B685A683B68DB68CB
:1027BC0000F047F97B681B689A687B681B6842F4D9
:1027CC0080429A603CE07B6818683B6859683B68BB
:1027DC00DB681A4600F0BEF87B681B68502118466F
:1027EC0000F015F92CE07B6818683B6859683B6869
:1027FC00DB681A4600F0DCF87B681B686021184621
:10280C0000F005F91CE07B6818683B6859683B6868
:10281C00DB681A4600F09EF87B681B68402118465E
:10282C0000F0F5F80CE07B681A683B681B681946E9
:10283C00104600F0ECF803E00123FB7300E000BF4E
:10284C007B68012283F83D207B68002283F83C20C2
:10285C00FB7B18461037BD4680BD80B483B000AFFB
:10286C00786000BF0C37BD4680BC704780B483B025
:10287C0000AF786000BF0C37BD4680BC704780B499
:10288C0083B000AF786000BF0C37BD4680BC70478A
:10289C0080B483B000AF786000BF0C37BD4680BCFD
:1028AC007047000080B485B000AF786039607B68F9
:1028BC001B68FB607B68254A934207D07B68B3F1A9
:1028CC00804F03D07B68224A934208D1FB6823F0E7
:1028DC007003FB603B685B68FA681343FB607B68C2
:1028EC001A4A934207D07B68B3F1804F03D07B68C0
:1028FC00174A934208D1FB6823F44073FB603B6892
:10290C00DB68FA681343FB60FB6823F080023B68CA
:10291C005B691343FB607B68FA681A603B689A68D2
:10292C007B68DA623B681A687B689A627B68074A44
:10293C00934203D13B681A697B681A637B68012256
:10294C005A6100BF1437BD4680BC7047002C014053
:10295C000004004080B487B000AFF860B9607A60C2
:10296C00FB681B6A7B61FB681B6A23F00102FB6836
:10297C001A62FB689B693B613B6923F0F0033B6186
:10298C007B681B013A6913433B617B6923F00A03A3
:10299C007B617A69BB6813437B61FB683A699A6116
:1029AC00FB687A691A6200BF1C37BD4680BC704751
:1029BC0080B487B000AFF860B9607A60FB681B6ABE
:1029CC007B61FB681B6A23F01002FB681A62FB68D0
:1029DC009B693B613B6923F470433B617B681B0340
:1029EC003A6913433B617B6923F0A0037B61BB68AD
:1029FC001B017A6913437B61FB683A699A61FB6836
:102A0C007A691A6200BF1C37BD4680BC704780B41F
:102A1C0085B000AF786039607B689B68FB60FB68B1
:102A2C0023F07003FB603A68FB68134343F0070321
:102A3C00FB607B68FA689A6000BF1437BD4680BCA7
:102A4C00704780B487B000AFF860B9607A603B60C3
:102A5C00FB689B687B617B6923F47F437B613B68EC
:102A6C001A027B681A43BB6813437A6913437B6170
:102A7C00FB687A699A6000BF1C37BD4680BC704702
:102A8C0080B485B000AF786039607B6893F83C30D7
:102A9C00012B01D1022341E07B68012283F83C2009
:102AAC007B68022283F83D207B681B685B68FB60B7
:102ABC007B681B689B68BB60FB6823F07003FB6042
:102ACC003B681B68FA681343FB607B681B68FA68F9
:102ADC005A607B681B68144A934209D07B681B6858
:102AEC00B3F1804F04D07B681B68104A93420CD121
:102AFC00BB6823F08003BB603B685B68BA68134318
:102B0C00BB607B681B68BA689A607B68012283F89B
:102B1C003D207B68002283F83C20002318461437A4
:102B2C00BD4680BC704700BF002C01400004004033
:102B3C0080B483B000AF786000BF0C37BD4680BC5A
:102B4C00704780B483B000AF786000BF0C37BD46CF
:102B5C0080BC704770B500260C4D0D4C641BA41046
:102B6C00A64209D100F022F800260A4D0A4C641B3B
:102B7C00A410A64205D170BD55F8043B9847013608
:102B8C00EEE755F8043B98470136F2E7F42B0008C2
:102B9C00F42B0008F42B0008F82B00080346024421
:102BAC00934200D1704703F8011BF9E7F8B500BF59
:102BBC00F8BC08BC9E467047F8B500BFF8BC08BC12
:042BCC009E4670476A
:102BD00000000000000000000102030406070809CD
:102BE00002030405060708090A0B0C0D0E0F10104E
:042BF00001020000DE
:042BF40031010008A3
:042BF8000D010008C3
:102BFC000008014000100503020000000001000065
:102C0C00000C0140000C0140000C0140000C014084
:102C1C00000C0140000C01400100080002001000F3
:102C2C00040020000024F40010000000010000004B
:0400000508001521B9
:00000001FF
